{
  "contractName": "TodoList",
  "abi": [
    {
      "constant": true,
      "inputs": [
        {
          "name": "",
          "type": "uint256"
        }
      ],
      "name": "tasks",
      "outputs": [
        {
          "name": "id",
          "type": "uint256"
        },
        {
          "name": "content",
          "type": "string"
        },
        {
          "name": "completed",
          "type": "bool"
        },
        {
          "name": "account",
          "type": "address"
        }
      ],
      "payable": false,
      "stateMutability": "view",
      "type": "function",
      "signature": "0x8d977672"
    },
    {
      "constant": true,
      "inputs": [],
      "name": "taskCount",
      "outputs": [
        {
          "name": "",
          "type": "uint256"
        }
      ],
      "payable": false,
      "stateMutability": "view",
      "type": "function",
      "signature": "0xb6cb58a5"
    },
    {
      "inputs": [],
      "payable": false,
      "stateMutability": "nonpayable",
      "type": "constructor",
      "signature": "constructor"
    },
    {
      "anonymous": false,
      "inputs": [
        {
          "indexed": false,
          "name": "id",
          "type": "uint256"
        },
        {
          "indexed": false,
          "name": "content",
          "type": "string"
        },
        {
          "indexed": false,
          "name": "completed",
          "type": "bool"
        },
        {
          "indexed": false,
          "name": "account",
          "type": "address"
        }
      ],
      "name": "TaskCreated",
      "type": "event",
      "signature": "0xa31a815e4d8d7c7af5700d02c3c156b3a6682908db1a38865de7b8a0c6f12a84"
    },
    {
      "anonymous": false,
      "inputs": [
        {
          "indexed": false,
          "name": "id",
          "type": "uint256"
        },
        {
          "indexed": false,
          "name": "completed",
          "type": "bool"
        }
      ],
      "name": "TaskCompleted",
      "type": "event",
      "signature": "0xe21fa966ca5cd02748c0752352d18c48165e61cb55b4c29cccf924b5a95fcff1"
    },
    {
      "constant": false,
      "inputs": [
        {
          "name": "_content",
          "type": "string"
        }
      ],
      "name": "createTask",
      "outputs": [],
      "payable": false,
      "stateMutability": "nonpayable",
      "type": "function",
      "signature": "0x111002aa"
    },
    {
      "constant": false,
      "inputs": [
        {
          "name": "_id",
          "type": "uint256"
        }
      ],
      "name": "completedTasks",
      "outputs": [],
      "payable": false,
      "stateMutability": "nonpayable",
      "type": "function",
      "signature": "0x40d22cf8"
    }
  ],
  "bytecode": "0x60806040526000805534801561001457600080fd5b506100626040805190810160405280601b81526020017f537475647920426c6f636b636861696e20546563686e6f6c6f677900000000008152506100b4640100000000026401000000009004565b6100af6040805190810160405280601881526020017f526561642047726f6b6b696e6720416c676f726974686d7300000000000000008152506100b4640100000000026401000000009004565b610336565b600080815480929190600101919050555060806040519081016040528060005481526020018281526020016000151581526020013373ffffffffffffffffffffffffffffffffffffffff16815250600160008054815260200190815260200160002060008201518160000155602082015181600101908051906020019061013c929190610291565b5060408201518160020160006101000a81548160ff02191690831515021790555060608201518160020160016101000a81548173ffffffffffffffffffffffffffffffffffffffff021916908373ffffffffffffffffffffffffffffffffffffffff1602179055509050507fa31a815e4d8d7c7af5700d02c3c156b3a6682908db1a38865de7b8a0c6f12a84600054826000336040518085815260200180602001841515151581526020018373ffffffffffffffffffffffffffffffffffffffff1673ffffffffffffffffffffffffffffffffffffffff168152602001828103825285818151815260200191508051906020019080838360005b83811015610251578082015181840152602081019050610236565b50505050905090810190601f16801561027e5780820380516001836020036101000a031916815260200191505b509550505050505060405180910390a150565b828054600181600116156101000203166002900490600052602060002090601f016020900481019282601f106102d257805160ff1916838001178555610300565b82800160010185558215610300579182015b828111156102ff5782518255916020019190600101906102e4565b5b50905061030d9190610311565b5090565b61033391905b8082111561032f576000816000905550600101610317565b5090565b90565b610901806103456000396000f3fe608060405260043610610062576000357c0100000000000000000000000000000000000000000000000000000000900463ffffffff168063111002aa1461006757806340d22cf81461012f5780638d9776721461016a578063b6cb58a514610263575b600080fd5b34801561007357600080fd5b5061012d6004803603602081101561008a57600080fd5b81019080803590602001906401000000008111156100a757600080fd5b8201836020820111156100b957600080fd5b803590602001918460018302840111640100000000831117156100db57600080fd5b91908080601f016020809104026020016040519081016040528093929190818152602001838380828437600081840152601f19601f82011690508083019250505050505050919291929050505061028e565b005b34801561013b57600080fd5b506101686004803603602081101561015257600080fd5b810190808035906020019092919050505061046b565b005b34801561017657600080fd5b506101a36004803603602081101561018d57600080fd5b81019080803590602001909291905050506106f4565b6040518085815260200180602001841515151581526020018373ffffffffffffffffffffffffffffffffffffffff1673ffffffffffffffffffffffffffffffffffffffff168152602001828103825285818151815260200191508051906020019080838360005b8381101561022557808201518184015260208101905061020a565b50505050905090810190601f1680156102525780820380516001836020036101000a031916815260200191505b509550505050505060405180910390f35b34801561026f57600080fd5b506102786107e9565b6040518082815260200191505060405180910390f35b600080815480929190600101919050555060806040519081016040528060005481526020018281526020016000151581526020013373ffffffffffffffffffffffffffffffffffffffff1681525060016000805481526020019081526020016000206000820151816000015560208201518160010190805190602001906103169291906107ef565b5060408201518160020160006101000a81548160ff02191690831515021790555060608201518160020160016101000a81548173ffffffffffffffffffffffffffffffffffffffff021916908373ffffffffffffffffffffffffffffffffffffffff1602179055509050507fa31a815e4d8d7c7af5700d02c3c156b3a6682908db1a38865de7b8a0c6f12a84600054826000336040518085815260200180602001841515151581526020018373ffffffffffffffffffffffffffffffffffffffff1673ffffffffffffffffffffffffffffffffffffffff168152602001828103825285818151815260200191508051906020019080838360005b8381101561042b578082015181840152602081019050610410565b50505050905090810190601f1680156104585780820380516001836020036101000a031916815260200191505b509550505050505060405180910390a150565b61047361086f565b600160008381526020019081526020016000206080604051908101604052908160008201548152602001600182018054600181600116156101000203166002900480601f0160208091040260200160405190810160405280929190818152602001828054600181600116156101000203166002900480156105355780601f1061050a57610100808354040283529160200191610535565b820191906000526020600020905b81548152906001019060200180831161051857829003601f168201915b505050505081526020016002820160009054906101000a900460ff161515151581526020016002820160019054906101000a900473ffffffffffffffffffffffffffffffffffffffff1673ffffffffffffffffffffffffffffffffffffffff1673ffffffffffffffffffffffffffffffffffffffff16815250509050806060015173ffffffffffffffffffffffffffffffffffffffff163373ffffffffffffffffffffffffffffffffffffffff161415156105ef57600080fd5b806040015115816040019015159081151581525050806001600084815260200190815260200160002060008201518160000155602082015181600101908051906020019061063e9291906107ef565b5060408201518160020160006101000a81548160ff02191690831515021790555060608201518160020160016101000a81548173ffffffffffffffffffffffffffffffffffffffff021916908373ffffffffffffffffffffffffffffffffffffffff1602179055509050507fe21fa966ca5cd02748c0752352d18c48165e61cb55b4c29cccf924b5a95fcff182826040015160405180838152602001821515151581526020019250505060405180910390a15050565b6001602052806000526040600020600091509050806000015490806001018054600181600116156101000203166002900480601f0160208091040260200160405190810160405280929190818152602001828054600181600116156101000203166002900480156107a65780601f1061077b576101008083540402835291602001916107a6565b820191906000526020600020905b81548152906001019060200180831161078957829003601f168201915b5050505050908060020160009054906101000a900460ff16908060020160019054906101000a900473ffffffffffffffffffffffffffffffffffffffff16905084565b60005481565b828054600181600116156101000203166002900490600052602060002090601f016020900481019282601f1061083057805160ff191683800117855561085e565b8280016001018555821561085e579182015b8281111561085d578251825591602001919060010190610842565b5b50905061086b91906108b0565b5090565b6080604051908101604052806000815260200160608152602001600015158152602001600073ffffffffffffffffffffffffffffffffffffffff1681525090565b6108d291905b808211156108ce5760008160009055506001016108b6565b5090565b9056fea165627a7a7230582047bdcb1643344d77fd527518fb1aad1be432d61228e4fefb6169bbb6a0822f360029",
  "source": "// SPDX-License-Identifier: MIT\r\npragma solidity ^0.5.0;\r\n\r\ncontract TodoList {\r\n  uint public taskCount = 0;\r\n\r\n\r\n  struct Task {\r\n    uint id;\r\n    string content;\r\n    bool completed;\r\n    address account;\r\n  }\r\n\r\n  mapping(uint => Task) public tasks;\r\n\r\n  event TaskCreated (\r\n    uint id,\r\n    string content,\r\n    bool completed,\r\n    address account\r\n  );\r\n\r\n  event TaskCompleted (\r\n    uint id,\r\n    bool completed\r\n  );\r\n  \r\n  constructor() public {\r\n    createTask(\"Study Blockchain Technology\");\r\n    createTask(\"Read Grokking Algorithms\");\r\n  }\r\n\r\n  function createTask(string memory _content) public {\r\n    taskCount++;\r\n    tasks[taskCount] = Task(taskCount, _content, false, msg.sender);\r\n    emit TaskCreated(taskCount, _content, false, msg.sender);\r\n  }\r\n\r\n  function completedTasks(uint _id) public {\r\n    Task memory _task = tasks[_id];\r\n    require(msg.sender == _task.account);\r\n    _task.completed = !_task.completed;\r\n    tasks[_id] = _task;\r\n    emit TaskCompleted(_id, _task.completed);\r\n    \r\n    \r\n  }\r\n}\r\n\r\n\r\n",
  "sourcePath": "H:/New folder/Ethereum-Todo-List/contracts/TodoList.sol",
  "compiler": {
    "name": "solc",
    "version": "0.5.0+commit.1d4f565a.Emscripten.clang"
  },
  "schemaVersion": "3.0.1",
  "updatedAt": "2021-08-25T16:24:43.167Z",
  "devdoc": {
    "methods": {}
  },
  "userdoc": {
    "methods": {}
  }
}